S0200000617474696E79313631345F61636373757065727669736F722E73726563B7
S11300000C943E000C9450000C9450000C9450003E
S11300100C9450000C9450000C9450000C9452001A
S11300200C9450000C9450000C9450000C9450000C
S11300300C9450000C9450000C9450000C945000FC
S11300400C9450000C9450000C9450000C945000EC
S11300500C9450000C9450000C9450000C945000DC
S11300600C9450000C9450000C9450000C946100BB
S11300700C9450000C9450000C94500011241FBE9A
S1130080CFEFCDBFDFE3DEBF28E3A0E0B8E301C0DC
S11300901D92A432B207E1F70E9438010C94920336
S11300A00C9400001F920F920FB60F9211248F939D
S11300B081E0809353018F910F900FBE0F901F909A
S11300C018951F920F920FB60F9211242F933F93FE
S11300D08F939F93EF93FF931FC08091010881FD3D
S11300E01BC080910238909103389C012F5F3F4FD1
S11300F0209302383093033820910008FC01EC5F10
S1130100F74C20838091023890910338809720F037
S11301101092023810920338809101088823ECF27F
S11301202091003830910138809102389091033841
S11301302817390799F48091023890910338019671
S11301408093003890930138809100389091013861
S1130150809720F01092003810920138FF91EF91AF
S11301609F918F913F912F910F900FBE0F901F90F1
S11301701895809141018111FCCFE0E4F1E081E028
S113018087838583828B89E4808B80E090E0089567
S1130190E0E5F0E0808184608083808181608083F9
S11301A008950F931F93CF93C0912411E0E0F2E0E0
S11301B021812E7F2183E0E2F4E02081277F2083C8
S11301C02081246020830E94750220E030E040E812
S11301D051E40E9403039B01AC0164E573E78BE4E3
S11301E09DE40E94CD0120E030E040E05FE30E9406
S11301F061010E943F029B01AC01AC2FCC0FBB0BF1
S1130200BC5F0E9470038B019C01992324F401506C
S11302101C4F2F4F3F4FD901C801072E7AE0B595E7
S1130220A795979587957A95D1F7702DE0E0F8E03A
S11302308087918780E8858383E08783138680ECB9
S1130240868380E090E0CF911F910F910895909163
S1130250040895FFFCCFE0E0F8E094819064948377
S113026082838091040886FFFCCF80E090E00895AB
S1130270F8940E94B9000E94C80060E072EC81E02A
S113028090E00E94D100789460E070E083E70E94DF
S113029027012091003830910138809102389091E3
S11302A003382817390751F08091003890910138AC
S11302B0809720F010920038109201388895E4CF8E
S11302C05058BB27AA270E9478010C94C9020E94A7
S11302D0BB0238F00E94C20220F039F49F3F19F4A7
S11302E026F40C94B8020EF4E095E7FB0C94B202E9
S11302F0E92F0E94DA0258F3BA17620773078407DA
S1130300950720F079F4A6F50C94FC020EF4E09520
S11303100B2EBA2FA02D0B01B90190010C01CA01BB
S1130320A0011124FF27591B99F0593F50F4503E66
S113033068F11A16F040A22F232F342F4427585F58
S1130340F3CF469537952795A795F0405395C9F770
S11303507EF41F16BA0B620B730B840BBAF0915028
S1130360A1F0FF0FBB1F661F771F881FC2F70EC0C7
S1130370BA0F621F731F841F48F48795779567959A
S1130380B795F7959E3F08F0B0CF9395880F08F086
S11303909927EE0F9795879508950E94E1010C9493
S11303A0C9020E94C20258F00E94BB0240F029F424
S11303B05F3F29F00C94B20251110C94FD020C948D
S11303C0B8020E94DA0268F39923B1F3552391F33A
S11303D0951B550BBB27AA2762177307840738F0B0
S11303E09F5F5F4F220F331F441FAA1FA9F335D00D
S11303F00E2E3AF0E0E832D091505040E695001CC1
S1130400CAF72BD0FE2F29D0660F771F881FBB1F7A
S1130410261737074807AB07B0E809F0BB0B802D58
S1130420BF01FF2793585F4F3AF09E3F510578F084
S11304300C94B2020C94FD025F3FE4F3983ED4F3B3
S1130440869577956795B795F7959F5FC9F7880F58
S1130450911D9695879597F90895E1E0660F771FAA
S1130460881FBB1F621773078407BA0720F0621B3B
S1130470730B840BBA0BEE1F88F7E09508950E9466
S113048046026894B1110C94FD0208950E94E202A0
S113049088F09F5798F0B92F9927B751B0F0E1F041
S11304A0660F771F881F991F1AF0BA95C9F714C0F1
S11304B0B13091F00E94FC02B1E008950C94FC026A
S11304C0672F782F8827B85F39F0B93FCCF386952A
S11304D077956795B395D9F73EF490958095709587
S11304E061957F4F8F4F9F4F0895E89409C097FB04
S11304F03EF490958095709561957F4F8F4F9F4FF7
S11305009923A9F0F92F96E9BB279395F69587953A
S113051077956795B795F111F8CFFAF4BB0F11F4FD
S113052060FF1BC06F5F7F4F8F4F9F4F16C08823A4
S113053011F096E911C0772321F09EE8872F762FDA
S113054005C0662371F096E8862F70E060E02AF01B
S11305509A95660F771F881FDAF7880F9695879507
S113056097F9089597F99F6780E870E060E008952F
S11305709FEF80EC089500240A94161617061806B7
S11305800906089500240A94121613061406050693
S11305900895092E0394000C11F4882352F0BB0F24
S11305A040F4BF2B11F460FF04C06F5F7F4F8F4F87
S11305B09F4F089557FD9058440F551F59F05F3FC2
S11305C071F04795880F97FB991F61F09F3F79F071
S11305D087950895121613061406551FF2CF4695F3
S11305E0F1DF08C0161617061806991FF1CF869575
S11305F07105610508940895E894BB276627772759
S1130600CB0197F908950E9416030C94C9020E9425
S1130610BB0238F00E94C20220F0952311F00C9422
S1130620B2020C94B80211240C94FD020E94DA0266
S113063070F3959FC1F3950F50E0551F629FF00131
S1130640729FBB27F00DB11D639FAA27F00DB11D4A
S1130650AA1F649F6627B00DA11D661F829F2227D3
S1130660B00DA11D621F739FB00DA11D621F839F5A
S1130670A00D611D221F749F3327A00D611D231F30
S1130680849F600D211D822F762F6A2F11249F577E
S113069050409AF0F1F088234AF0EE0FFF1FBB1F81
S11306A0661F771F881F91505040A9F79E3F510540
S11306B080F00C94B2020C94FD025F3FE4F3983E88
S11306C0D4F3869577956795B795F795E7959F5FEA
S11306D0C1F7FE2B880F911D9695879597F908957C
S11306E0B7FF0C9478030E947803821B930B089540
S11306F00E948303A59F900DB49F900DA49F800D2D
S1130700911D11240895A29FB001B39FC001A39F1E
S1130710700D811D1124911DB29F700D811D112436
S10B0720911D0895F894FFCF28
S9030000FC
