S0200000617474696E79313631345F61636373757065727669736F722E73726563B7
S11300000C9451000C946E000C946E000C946E00D1
S11300100C946E000C946E000C946E000C949F0073
S11300200C946E000C946E000C946E000C946E0094
S11300300C946E000C946E000C946E000C946E0084
S11300400C946E000C946E000C946E000C946E0074
S11300500C946E000C946E000C946E000C946E0064
S11300600C946E000C946E000C946E000C94D600EC
S11300700C946E000C946E000C946E005F031504D7
S113008078031504150415041504150491031504C7
S1130090AA031504C303150415041504E903150480
S11300A0000411241FBECFEFCDBFDFE3DEBF18E392
S11300B0A0E0B8E3E4EBF3E102C005900D92A430B4
S11300C0B107D9F728E3A4E0B8E301C01D92AB342B
S11300D0B207E1F70E947B020C94BA090C94000069
S11300E09091040895FFFCCFE0E0F8E094819064DF
S11300F0948382838091040886FFFCCF80E090E0A3
S11301000895EF92FF921F93CF93DF937C01162FF4
S1130110C0E0D0E009C0F701EC0FFD1F60E070E023
S113012080810E9470002196812F90E0C817D90722
S113013090F3DF91CF911F91FF90EF9008951F925C
S11301400F920FB60F9211242F933F934F935F9307
S11301506F937F938F939F93AF93BF93EF93FF938B
S113016081E0809353010E94A104809105388F316E
S113017018F08EE18093053880910538882329F0A2
S113018080910538815080930538FF91EF91BF919C
S1130190AF919F918F917F916F915F914F913F911B
S11301A02F910F900FBE0F901F9018951F920F92D2
S11301B00FB60F9211242F933F938F939F93EF9336
S11301C0FF931FC08091010881FD1BC080910E38F0
S11301D090910F389C012F5F3F4F20930E3830933E
S11301E00F3820910008FC01E05FF74C20838091D8
S11301F00E3890910F38809720F010920E3810929C
S11302000F38809101088823ECF220910C3830914A
S11302100D3880910E3890910F382817390799F4CA
S113022080910E3890910F38019680930C389093FA
S11302300D3880910C3890910D38809720F01092F1
S11302400C3810920D38FF91EF919F918F913F914F
S11302502F910F900FBE0F901F9018958091410120
S11302608111FCCFE0E4F1E081E087838583828B18
S113027089E4808B80E090E00895E0E5F0E08081FF
S11302808460808380818160808380E090E0089531
S1130290E0E0F4E0808188608083E0E2F4E0808143
S11302A08260808380E090E008950F931F93CF9342
S11302B0C0912411E0E0F2E021812E7F2183E0E26D
S11302C0F4E02081277F20832081246020830E9402
S11302D0BF0520E030E040E851E40E944D069B0158
S11302E0AC0164E573E78BE49DE40E94170520E00C
S11302F030E040E05FE30E94AB040E9489059B016B
S1130300AC01AC2FCC0FBB0BBC5F0E94C0068B01B1
S11303109C01992324F401501C4F2F4F3F4FD901C6
S1130320C801072E7AE0B595A795979587957A9594
S1130330D1F7702DE0E0F8E08087918780E885832D
S113034083E08783138680EC868380E090E0CF91FE
S11303501F910F91089580910B38816080930B3821
S1130360E0E2F4E0858182608583089580910B3812
S11303708E7F80930B38E0E2F4E08681826086838E
S1130380089580910B38826080930B38E0E0F4E0AC
S1130390858188608583089580910B388D7F809353
S11303A00B38E0E0F4E086818860868308958091CC
S11303B00B38817090E00895E0E0F4E08189887F53
S11303C0818B8289887F828B81898460818B8289F9
S11303D08460828BE0E0F6E081E08083118297E123
S11303E0928390EA938314821582118612868387FE
S11303F0148680E090E008958091080680FD40C056
S113040080910B0680FF28C0809106068F71813091
S113041071F480911006909111068093093890939D
S11304200A388091063881608093063812C0809122
S113043006068F71823069F480911006909111063E
S113044080930738909308388091063882608093AF
S1130450063881E080930B06809106068F71813007
S113046021F482E08093060603C081E080930606AF
S113047081E0809308068091043882608093043878
S113048008950F931F93CF93DF9300910738109132
S11304900838C0910038D09101380C171D0718F0A6
S11304A08EE1809305380E94D701892BD1F00C1777
S11304B01D0758F02091093830910A38809102388C
S11304C0909103382817390788F4809105388111F1
S11304D00DC00E94B601809104388E7F8093043849
S11304E005C00C171D0710F00E94AB01DF91CF91DE
S11304F01F910F910895CF93DF93CDB7DEB72E9759
S1130500CDBFDEBF8E010F5F1F4F8EE0F801119249
S11305108A95E9F782E08C8380E790E089879A875F
S1130520F8940E942E010E943D010E94480160E05F
S113053072EC81E090E00E9455010E94DC01789405
S113054000934738109348380E942C0480E090E0D0
S11305500E94330481E890E00E9438041092043829
S11305600E94C1010FEF0E94A704182F081761F120
S113057080910538909104381F929F93909106388A
S11305801F929F931F928F93809108388F9380912D
S113059007388F9380910A388F93809109388F930D
S11305A088E793E99F938F930E94E2060E94D70104
S11305B0CDBFDEBF892B39F08091043881608093F0
S11305C00438012F01C0012F0E94FC0180910638DC
S11305D08370833049F4109206380E94410280915E
S11305E004388D7F8093043820910C3830910D3875
S11305F080910E3890910F3828173907D9F08091DF
S11306000C3890910D389C012F5F3F4F20930C388C
S113061030930D38FC01E05FF74C80810E943D046B
S113062080910C3890910D38809720F010920C38FE
S113063010920D3880910438837009F094CF0E9491
S1130640CC0188950E94C1018ECFEF920F93FC01DB
S113065080E880836183428323830483E582460F99
S1130660240F020FE00EE68286E887830F91EF9055
S11306700895EF920F93CF93DF93CDB7DEB728970A
S1130680CDBFDEBFDE01119698E0FD0111929A956F
S1130690E9F7E0914138F0914238309711F009952B
S11306A0D3C09EE19093053890E0FC013197E3318B
S11306B0F10508F0BAC0E25CFF4F0C94BA06E09072
S11306C00738009108382091093840910A3862E0CF
S11306D0CE0101960E942503E0913F38F091403805
S11306E0309709F4A2C068E0CE01019609959DC037
S11306F0E0900738009108382091093840910A3871
S113070064E0CE0101960E942503E0913F38F09108
S11307104038309709F489C068E0CE010196099504
S113072084C0E0900738009108382091093840913E
S11307300A386AE0CE0101960E942503E0913F3811
S1130740F0914038309709F470C068E0CE0101960A
S113075009956BC0E090003800910138209102386F
S1130760409103386CE0CE0101960E942503E0918C
S11307703F38F0914038309709F457C068E0CE0113
S11307800196099552C070E0762F6627640F711D9B
S1130790609302387093033830E0322F2227200F01
S11307A0311D2093003830930138E22E032F262F79
S11307B0472F6EE0CE0101960E942503E0913F3859
S11307C0F0914038309789F168E0CE01019609959F
S11307D02CC081E080933C38E12C00E020E041E033
S11307E062E1CE0101960E942503E0913F38F09129
S11307F040383097D1F068E0CE010196099515C0D4
S113080010923C38E12C00E020E040E064E1CE01AD
S113081001960E942503E0913F38F09140383097CB
S113082021F068E0CE010196099580913C38882337
S113083031F08091043881608093043805C0809140
S113084004388E7F809304382896CDBFDEBFDF91B5
S1130850CF910F91EF90089581E090E080933D381F
S113086090933E3808958093413890934238089588
S113087080933F389093403808950F931F932091AD
S11308803D3830913E38232B09F458C090914338B9
S1130890992319F09130B1F051C0803809F04EC05D
S11308A091E09093433841E050E060E070E0409381
S11308B038385093393860933A3870933B38809382
S11308C030383CC0409138385091393860913A38CA
S11308D070913B38483051056105710568F58A010E
S11308E09B010F5F1F4F2F4F3F4F009338381093DA
S11308F0393820933A3830933B38FA01E05DF74CAD
S113090080830830110521053105C1F4863889F446
S1130910E0E3F8E381816281438124810581982F9A
S1130920960F940F920F900F3681931302C00E947A
S113093039031092433802C0109243381F910F912B
S11309400895809144388F5F80934438089580914E
S1130950443808955058BB27AA270E94C2040C9417
S113096013060E94050638F00E940C0620F039F4A4
S11309709F3F19F426F40C9402060EF4E095E7FB6D
S11309800C94FC05E92F0E94240658F3BA17620759
S113099073078407950720F079F4A6F50C944606AE
S11309A00EF4E0950B2EBA2FA02D0B01B901900186
S11309B00C01CA01A0011124FF27591B99F0593FCA
S11309C050F4503E68F11A16F040A22F232F342F12
S11309D04427585FF3CF469537952795A795F04060
S11309E05395C9F77EF41F16BA0B620B730B840B75
S11309F0BAF09150A1F0FF0FBB1F661F771F881F2D
S1130A00C2F70EC0BA0F621F731F841F48F4879584
S1130A1077956795B795F7959E3F08F0B0CF939576
S1130A20880F08F09927EE0F9795879508950E94EF
S1130A302B050C9413060E940C0658F00E94050620
S1130A4040F029F45F3F29F00C94FC0551110C94FB
S1130A5047060C9402060E94240668F39923B1F316
S1130A60552391F3951B550BBB27AA2762177307D0
S1130A70840738F09F5F5F4F220F331F441FAA1F64
S1130A80A9F335D00E2E3AF0E0E832D09150504020
S1130A90E695001CCAF72BD0FE2F29D0660F771FCE
S1130AA0881FBB1F261737074807AB07B0E809F0B4
S1130AB0BB0B802DBF01FF2793585F4F3AF09E3F39
S1130AC0510578F00C94FC050C9447065F3FE4F361
S1130AD0983ED4F3869577956795B795F7959F5F7C
S1130AE0C9F7880F911D9695879597F90895E1E0C8
S1130AF0660F771F881FBB1F621773078407BA0727
S1130B0020F0621B730B840BBA0BEE1F88F7E09581
S1130B1008950E9490056894B1110C9447060895B5
S1130B200E942C0688F09F5798F0B92F9927B75147
S1130B30B0F0E1F0660F771F881F991F1AF0BA957D
S1130B40C9F714C0B13091F00E944606B1E008958F
S1130B500C944606672F782F8827B85F39F0B93F81
S1130B60CCF3869577956795B395D9F73EF4909530
S1130B708095709561957F4F8F4F9F4F0895E894AE
S1130B8009C097FB3EF490958095709561957F4FD1
S1130B908F4F9F4F9923A9F0F92F96E9BB2793957F
S1130BA0F695879577956795B795F111F8CFFAF48F
S1130BB0BB0F11F460FF1BC06F5F7F4F8F4F9F4FC0
S1130BC016C0882311F096E911C0772321F09EE81E
S1130BD0872F762F05C0662371F096E8862F70E084
S1130BE060E02AF09A95660F771F881FDAF7880F5E
S1130BF09695879597F9089597F99F6780E870E02F
S1130C0060E008959FEF80EC089500240A9416167E
S1130C10170618060906089500240A9412161306E6
S1130C20140605060895092E0394000C11F4882374
S1130C3052F0BB0F40F4BF2B11F460FF04C06F5F90
S1130C407F4F8F4F9F4F089557FD9058440F551F66
S1130C5059F05F3F71F04795880F97FB991F61F03A
S1130C609F3F79F087950895121613061406551FB1
S1130C70F2CF4695F1DF08C0161617061806991F1D
S1130C80F1CF86957105610508940895E894BB2712
S1130C9066277727CB0197F908950E9460060C9484
S1130CA013060E94050638F00E940C0620F09523D6
S1130CB011F00C94FC050C94020611240C944706C4
S1130CC00E94240670F3959FC1F3950F50E0551FC1
S1130CD0629FF001729FBB27F00DB11D639FAA278D
S1130CE0F00DB11DAA1F649F6627B00DA11D661FDC
S1130CF0829F2227B00DA11D621F739FB00DA11DFD
S1130D00621F839FA00D611D221F749F3327A00DB6
S1130D10611D231F849F600D211D822F762F6A2F52
S1130D2011249F5750409AF0F1F088234AF0EE0FB7
S1130D30FF1FBB1F661F771F881F91505040A9F7E4
S1130D409E3F510580F00C94FC050C9447065F3FD0
S1130D50E4F3983ED4F3869577956795B795F79520
S1130D60E7959F5FC1F7FE2B880F911D9695879598
S1130D7097F90895EE0FFF1F0590F491E02D099463
S1130D80B7FF0C94C8060E94C806821B930B0895F3
S1130D900E94D306A59F900DB49F900DA49F800D33
S1130DA0911D11240895A29FB001B39FC001A39F78
S1130DB0700D811D1124911DB29F700D811D112490
S1130DC0911D0895A0E0B0E0E8EEF6E00C949909D6
S1130DD0AE014B5F5F4FFA0161917191AF01809158
S1130DE04738909148380E94F806E2E00C94B20922
S1130DF0ABE0B0E0EEEFF6E00C9489096C017B0106
S1130E008A01FC0116821782838181FFCCC1CE0145
S1130E1001963C01F6019381F70193FD859193FFBF
S1130E2081917F01882309F4BAC1853239F493FD95
S1130E30859193FF81917F01853229F4B60190E079
S1130E400E94EF08E7CF912C212C312CFFE1F31500
S1130E50D8F08B3279F038F4803279F08332A1F40F
S1130E60232D20611DC08D3261F0803369F4232D60
S1130E70216016C0832D8260382EE32DE4603E2E5F
S1130E802AC0F32DF8601DC037FC2DC020ED280FBB
S1130E902A3040F08E32B9F436FC81C1232D20640F
S1130EA0322E19C036FE06C08AE0989E200D112409
S1130EB0922E11C0EAE02E9E200D1124222EF32D35
S1130EC0F0623F2E08C08C3621F4832D8068382EC2
S1130ED002C0883641F4F70193FD859193FF819117
S1130EE07F018111B3CF982F9F7D9554933028F4BF
S1130EF00C5F1F4F9FE399830DC0833631F0833716
S1130F0071F0833509F059C021C0F80180818983CB
S1130F100E5F1F4F88248394912C530113C0280122
S1130F20F2E04F0E511CF801A080B18036FE03C0E0
S1130F30692D70E002C06FEF7FEFC5010E94E408E5
S1130F404C018201F32DFF773F2E16C0280122E0C9
S1130F50420E511CF801A080B18036FE03C0692DF9
S1130F6070E002C06FEF7FEFC5010E94D9084C0109
S1130F70F32DF0683F2E820133FC1BC0822D90E0DC
S1130F8088169906B0F4B60180E290E00E94EF085A
S1130F902A94F4CFF50137FC859137FE81915F01E6
S1130FA0B60190E00E94EF0821102A9421E0821AF1
S1130FB091088114910471F7E8C0843611F08936E0
S1130FC041F5F80137FE07C0608171818281938108
S1130FD00C5F1F4F08C060817181072E000C880BC5
S1130FE0990B0E5F1F4FF32DFF763F2E97FF09C01D
S1130FF090958095709561957F4F8F4F9F4FF068C6
S11310003F2E2AE030E0A3010E942B09882E861887
S113101045C0853731F4232D2F7EB22E2AE030E0EF
S113102025C0932D997FB92E8F36C1F018F48835D9
S113103079F0B5C0803719F0883721F0B0C0E92FB6
S1131040E061BE2EB4FE0DC0FB2DF460BF2E09C0BE
S113105034FE0AC0292F2660B22E06C028E030E0F4
S113106005C020E130E002C020E132E0F801B7FE23
S113107007C060817181828193810C5F1F4F06C01C
S11310806081718180E090E00E5F1F4FA3010E9498
S11310902B09882E8618FB2DFF773F2E36FE0DC0B8
S11310A0232D2E7FA22E891458F434FE0BC032FC5B
S11310B009C0832D8E7EA82E05C0B82CA32C03C096
S11310C0B82C01C0B92CA4FE0FC0FE01E80DF11D1F
S11310D08081803321F49A2D997EA92E09C0A2FE25
S11310E006C0B394B39404C08A2D867809F0B394EF
S11310F0A3FC11C0A0FE06C0B21488F4280C922CE4
S11311009B180EC0B21460F4B60180E290E00E9415
S1131110EF08B394F7CFB21418F42B1802C0982C2C
S1131120212CA4FE10C0B60180E390E00E94EF08D9
S1131130A2FE17C0A1FC03C088E790E002C088E5C6
S113114090E0B6010CC08A2D867859F0A1FE02C049
S11311508BE201C080E2A7FC8DE2B60190E00E9420
S1131160EF08891438F4B60180E390E00E94EF0898
S11311709A94F7CF8A94F301E80DF11D8081B601AA
S113118090E00E94EF088110F5CF222009F442CEAE
S1131190B60180E290E00E94EF082A94F6CFF601AF
S11311A08681978102C08FEF9FEF2B96E2E10C942A
S11311B0A209FC010590615070400110D8F7809598
S11311C090958E0F9F1F0895FC016150704001900F
S11311D00110D8F7809590958E0F9F1F08950F9357
S11311E01F93CF93DF93FB01238121FD03C08FEF76
S11311F09FEF2CC022FF16C0468157812481358180
S11312004217530744F4A081B1819D012F5F3F4FE2
S1131210208331838C93268137812F5F3F4F268330
S1131220378314C08B01EC01FB010084F185E02DB0
S11312300995892BE1F6D80116968D919C91179703
S1131240019616968D939C931797CE01DF91CF91BB
S11312501F910F910895FA01AA27283051F12031E6
S113126081F1E8946F936E7F6E5F7F4F8F4F9F4F36
S1131270AF4FB1E03ED0B4E03CD0670F781F891F78
S11312809A1FA11D680F791F8A1F911DA11D6A0F46
S1131290711D811D911DA11D20D009F468943F91F9
S11312A02AE0269F11243019305D3193DEF6CF01F8
S11312B00895462F4770405D4193B3E00FD0C9F7BE
S11312C0F6CF462F4F70405D4A3318F0495D31FD2B
S11312D04052419302D0A9F7EACFB4E0A69597957E
S11312E0879577956795BA95C9F700976105710554
S11312F008959B01AC010A2E06945795479537959E
S11313002795BA95C9F7620F731F841F951FA01DF7
S113131008952F923F924F925F926F927F928F9295
S11313209F92AF92BF92CF92DF92EF92FF920F9370
S11313301F93CF93DF93CDB7DEB7CA1BDB0BCDBFB3
S1131340DEBF09942A88398848885F846E847D8446
S11313508C849B84AA84B984C884DF80EE80FD8059
S11313600C811B81AA81B981CE0FD11DCDBFDEBFF7
S10B1370ED010895F894FFCF8C
S11313786261743A2025642C206163633A202564F1
S11313882C20746F75743A2025642C20616463736F
S11313987461743A253032782C20736C65657066F4
S10F13A86C61673A20253032780D0A0091
S10713B44C024C0295
S9030000FC
