S0200000617474696E79313631345F61636373757065727669736F722E73726563B7
S11300000C943E000C945B000C945B000C945B001D
S11300100C945B000C945B000C945B000C945B00F0
S11300200C945B000C945B000C945B000C945B00E0
S11300300C945B000C945B000C945B000C945B00D0
S11300400C945B000C945B000C945B000C945B00C0
S11300500C945B000C945B000C945B000C945B00B0
S11300600C945B000C945B000C945B000C94660095
S11300700C945B000C945B000C945B0011241FBE79
S1130080CFEFCDBFDFE3DEBF18E3A0E0B8E3E8E7DE
S1130090F7E002C005900D92AE30B107D9F728E31E
S11300A0AEE0B8E301C01D92A833B207E1F70E94A5
S11300B016010C94B1030C9400009091040895FF70
S11300C0FCCF8093020880E090E008951F920F9285
S11300D00FB60F9211242F933F938F939F93EF9317
S11300E0FF931FC08091010881FD1BC080911038CF
S11300F0909111389C012F5F3F4F2093103830931B
S1130100113820910008FC01EE5EF74C20838091A9
S1130110103890911138809720F010921038109276
S11301201138809101088823ECF220910E38309127
S11301300F3880911038909111382817390799F4A5
S11301408091103890911138019680930E389093D5
S11301500F3880910E3890910F38809720F01092CC
S11301600E3810920F38FF91EF919F918F913F912C
S11301702F910F900FBE0F901F9018950F931F9300
S1130180CF93C0912411F894E0E0F2E021812E7F16
S11301902183E0E2F4E02081277F20832081246012
S11301A020830E94640220E030E040E851E40E9491
S11301B0F2029B01AC0164E573E78BE49DE40E94C9
S11301C0BC0120E030E040E05FE30E9450010E9467
S11301D02E029B01AC01AC2FCC0FBB0BBC5F0E9469
S11301E05F038B019C01992324F401501C4F2F4F72
S11301F03F4FD901C801072E7AE0B595A795979589
S113020087957A95D1F7702DE0E0F8E080879187A3
S113021080E8858383E087831386789480EC8683E3
S113022080E090E0CF911F910F91089560E072EC0F
S113023081E090E00E94BE0080E098E3809334382F
S11302409093353886E697E80E94810320910E3812
S113025030910F3880911038909111382817390750
S1130260A9F380910E3890910F389C012F5F3F4F76
S113027020930E3830930F38FC01EE5EF74C8081EA
S113028060E070E00E945D0080910E3890910F381C
S11302908097E0F210920E3810920F38D7CF505852
S11302A0BB27AA270E9467010C94B8020E94AA02E5
S11302B038F00E94B10220F039F49F3F19F426F47B
S11302C00C94A7020EF4E095E7FB0C94A102E92F2D
S11302D00E94C90258F3BA17620773078407950787
S11302E020F079F4A6F50C94EB020EF4E0950B2EB5
S11302F0BA2FA02D0B01B90190010C01CA01A00174
S11303001124FF27591B99F0593F50F4503E68F1CE
S11303101A16F040A22F232F342F4427585FF3CF0F
S1130320469537952795A795F0405395C9F77EF4E0
S11303301F16BA0B620B730B840BBAF09150A1F029
S1130340FF0FBB1F661F771F881FC2F70EC0BA0FAF
S1130350621F731F841F48F4879577956795B79537
S1130360F7959E3F08F0B0CF9395880F08F0992732
S1130370EE0F9795879508950E94D0010C94B802CA
S11303800E94B10258F00E94AA0240F029F45F3F93
S113039029F00C94A10251110C94EC020C94A702C4
S11303A00E94C90268F39923B1F3552391F3951B75
S11303B0550BBB27AA2762177307840738F09F5F82
S11303C05F4F220F331F441FAA1FA9F335D00E2EEF
S11303D03AF0E0E832D091505040E695001CCAF75C
S11303E02BD0FE2F29D0660F771F881FBB1F26171F
S11303F037074807AB07B0E809F0BB0B802DBF01F6
S1130400FF2793585F4F3AF09E3F510578F00C94C4
S1130410A1020C94EC025F3FE4F3983ED4F386957A
S113042077956795B795F7959F5FC9F7880F911DE5
S11304309695879597F90895E1E0660F771F881FD1
S1130440BB1F621773078407BA0720F0621B730B84
S1130450840BBA0BEE1F88F7E09508950E943502CD
S11304606894B1110C94EC0208950E94D10288F0B2
S11304709F5798F0B92F9927B751B0F0E1F0660F64
S1130480771F881F991F1AF0BA95C9F714C0B130A5
S113049091F00E94EB02B1E008950C94EB02672FF7
S11304A0782F8827B85F39F0B93FCCF386957795D4
S11304B06795B395D9F73EF49095809570956195BD
S11304C07F4F8F4F9F4F0895E89409C097FB3EF4E8
S11304D090958095709561957F4F8F4F9F4F99238D
S11304E0A9F0F92F96E9BB279395F695879577950B
S11304F06795B795F111F8CFFAF4BB0F11F460FFCB
S11305001BC06F5F7F4F8F4F9F4F16C0882311F022
S113051096E911C0772321F09EE8872F762F05C036
S1130520662371F096E8862F70E060E02AF09A95D1
S1130530660F771F881FDAF7880F9695879597F9C6
S1130540089597F99F6780E870E060E008959FEF51
S113055080EC089500240A94161617061806090656
S1130560089500240A941216130614060506089525
S1130570092E0394000C11F4882352F0BB0F40F4AD
S1130580BF2B11F460FF04C06F5F7F4F8F4F9F4FED
S1130590089557FD9058440F551F59F05F3F71F06F
S11305A04795880F97FB991F61F09F3F79F08795D6
S11305B00895121613061406551FF2CF4695F1DF5F
S11305C008C0161617061806991FF1CF86957105EF
S11305D0610508940895E894BB2766277727CB0123
S11305E097F908950E9405030C94B8020E94AA0288
S11305F038F00E94B10220F0952311F00C94A1026E
S11306000C94A70211240C94EC020E94C90270F30A
S1130610959FC1F3950F50E0551F629FF001729FA3
S1130620BB27F00DB11D639FAA27F00DB11DAA1FB2
S1130630649F6627B00DA11D661F829F2227B00DFF
S1130640A11D621F739FB00DA11D621F839FA00D8A
S1130650611D221F749F3327A00D611D231F849FDA
S1130660600D211D822F762F6A2F11249F57504031
S11306709AF0F1F088234AF0EE0FFF1FBB1F661FAC
S1130680771F881F91505040A9F79E3F510580F075
S11306900C94A1020C94EC025F3FE4F3983ED4F373
S11306A0869577956795B795F795E7959F5FC1F719
S11306B0FE2B880F911D9695879597F90895B7FF9E
S11306C00C9467030E946703821B930B08950E9496
S11306D07203A59F900DB49F900DA49F800D911D52
S11306E011240895A29FB001B39FC001A39F700D70
S11306F0811D1124911DB29F700D811D1124911D26
S113070008950F931F93CF93DF93E0913438F091C2
S11307103538238121FF1BC08C01D0E0C0E0F801F3
S113072081918F016091343870913538DB011896CE
S1130730ED91FC911997882331F00995892B79F370
S1130740DFEFCFEFECCF8AE00995892B19F08FEF1B
S11307509FEF02C08D2F9C2FDF91CF911F910F919E
S10907600895F894FFCF98
S113076648656C6C6F2C2049276D20616C69766531
S10507762E004F
S111077800000002000000005D000000000010
S9030000FC
