S0200000617474696E79313631345F61636373757065727669736F722E73726563B7
S11300000C943E000C945B000C945B000C945B001D
S11300100C945B000C945B000C945B000C945D00EE
S11300200C945B000C945B000C945B000C945B00E0
S11300300C945B000C945B000C945B000C945B00D0
S11300400C945B000C945B000C945B000C945B00C0
S11300500C945B000C945B000C945B000C945B00B0
S11300600C945B000C945B000C945B000C946C008F
S11300700C945B000C945B000C945B0011241FBE79
S1130080CFEFCDBFDFE3DEBF18E3A0E0B8E3E3EAE0
S1130090F0E102C005900D92A230B107D9F728E330
S11300A0A2E0B8E301C01D92A534B207E1F70E94B3
S11300B0E5010C9445080C9400001F920F920FB6B2
S11300C00F9211248F9381E0809353018F910F90AD
S11300D00FBE0F901F9018951F920F920FB60F929C
S11300E011242F933F938F939F93EF93FF931FC0FC
S11300F08091010881FD1BC080910A3890910B38D2
S11301009C012F5F3F4F20930A3830930B38209186
S11301100008FC01E45FF74C208380910A38909139
S11301200B38809720F010920A3810920B38809187
S113013001088823ECF22091083830910938809125
S11301400A3890910B382817390799F480910A38A6
S113015090910B38019680930838909309388091D8
S1130160083890910938809720F01092083810923E
S11301700938FF91EF919F918F913F912F910F90AB
S11301800FBE0F901F901895809141018111FCCFF3
S1130190E0E4F1E081E087838583828B89E4808BCE
S11301A080E090E00895E0E5F0E080818460808361
S11301B080818160808380E090E00895E0E0F4E055
S11301C0808188608083E0E2F4E0808182608083C3
S11301D080E090E008950F931F93CF93C091241172
S11301E0E0E0F2E021812E7F2183E0E2F4E020814F
S11301F0277F20832081246020830E94500420E0F4
S113020030E040E851E40E94DE049B01AC0164E567
S113021073E78BE49DE40E94A80320E030E040E013
S11302205FE30E943C030E941A049B01AC01AC2FC3
S1130230CC0FBB0BBC5F0E944B058B019C01992327
S113024024F401501C4F2F4F3F4FD901C801072EF2
S11302507AE0B595A795979587957A95D1F7702DFE
S1130260E0E0F8E08087918780E8858383E08783F6
S1130270138680EC868380E090E0CF911F910F91EC
S113028008959091040895FFFCCFE0E0F8E0948194
S11302909064948382838091040886FFFCCF80E07D
S11302A090E00895EF92FF921F93CF93DF937C0128
S11302B0162FC0E0D0E009C0F701EC0FFD1F60E08D
S11302C070E080810E9441012196812F90E0C8173F
S11302D0D90790F3DF91CF911F91FF90EF9008958C
S11302E080910738826080930738E0E0F4E08581EC
S11302F0886085830895809107388D7F80930738BF
S1130300E0E0F4E08681886086830895E0E0F4E02C
S11303108189887F818B8289887F828B81898460AF
S1130320818B82898460828BE0E0F6E081E08083C7
S1130330118297E1928390EA938314821582118645
S113034012868387148680E090E0089580910806E1
S113035080FD3AC080910B0680FF27C0809106067D
S11303608F71813069F48091100690911106809309
S11303700538909306388091023881608093023862
S1130380809106068F71823069F4809110069091F5
S11303901106809303389093043880910238826068
S11303A08093023881E080930B06809106068F715A
S11303B0813021F482E08093060603C081E08093BB
S11303C0060681E0809308060895F8940E94C4000C
S11303D00E94D3000E94DE0060E072EC81E090E0B5
S11303E00E94EB000E94860178940E94C60280E07D
S11303F090E00E94CD0282E591E00E94D202109228
S113040000380E9470010E94A60180910238837016
S11304108330E9F4809104388F93809103388F936B
S1130420809106388F93809105388F938EE890E9F8
S11304309F938F930E946D051092023881E0809300
S113044000380F900F900F900F900F900F90209105
S113045008383091093880910A3890910B38281760
S11304603907D9F080910838909109389C012F5FA1
S11304703F4F2093083830930938FC01E45FF74C70
S113048080810E94D7028091083890910938809722
S113049020F010920838109209388091003888238F
S11304A009F4B1CF0E947B018895109200380E9414
S11304B07001A9CFEF920F93FC0180E880836183E0
S11304C0428323830483E582460F240F020FE00E48
S11304D0E68286E887830F91EF900895EF920F9359
S11304E0CF93DF93CDB7DEB72897CDBFDEBFFE0134
S11304F0319698E0DF011D929A95E9F7E0913C3836
S1130500F0913D38309711F0099538C08330C1F02F
S1130510893051F1813091F5E12C00E020E041E097
S113052062E0CE0101960E945A02E0913A38F091BD
S11305303B38309719F168E0CE01019609951EC049
S1130540E12C00E020E041E064E0CE0101960E944D
S11305505A02E0913A38F0913B38309779F068E0EC
S1130560CE01019609950AC0E0913A38F0913B38E2
S1130570309721F068E0CE01019609952896CDBF09
S1130580DEBFDF91CF910F91EF90089581E090E06D
S11305908093383890933938089580933C389093F9
S11305A03D38089580933A3890933B3808950F93DB
S11305B01F932091383830913938232B09F458C0CF
S11305C090913E38992319F09130B1F051C08038A0
S11305D009F04EC091E090933E3841E050E060E075
S11305E070E04093343850933538609336387093C4
S11305F0373880932C383CC040913438509135388A
S1130600609136387091373848305105610571056D
S113061068F58A019B010F5F1F4F2F4F3F4F0093D7
S11306203438109335382093363830933738FA01FC
S1130630E45DF74C80830830110521053105C1F4D0
S1130640863889F4ECE2F8E3818162814381248174
S11306500581982F960F940F920F900F3681931364
S113066002C00E946E0210923E3802C010923E38C0
S11306701F910F9108955058BB27AA270E94530336
S11306800C94A4040E94960438F00E949D0420F067
S113069039F49F3F19F426F40C9493040EF4E09576
S11306A0E7FB0C948D04E92F0E94B50458F3BA17A4
S11306B0620773078407950720F079F4A6F50C9474
S11306C0D7040EF4E0950B2EBA2FA02D0B01B9011F
S11306D090010C01CA01A0011124FF27591B99F0B4
S11306E0593F50F4503E68F11A16F040A22F232FC0
S11306F0342F4427585FF3CF469537952795A79510
S1130700F0405395C9F77EF41F16BA0B620B730BB6
S1130710840BBAF09150A1F0FF0FBB1F661F771F27
S1130720881FC2F70EC0BA0F621F731F841F48F4DC
S1130730879577956795B795F7959E3F08F0B0CF65
S11307409395880F08F09927EE0F9795879508954C
S11307500E94BC030C94A4040E949D0458F00E94BF
S1130760960440F029F45F3F29F00C948D04511154
S11307700C94D8040C9493040E94B50468F3992350
S1130780B1F3552391F3951B550BBB27AA27621789
S11307907307840738F09F5F5F4F220F331F441F96
S11307A0AA1FA9F335D00E2E3AF0E0E832D09150CA
S11307B05040E695001CCAF72BD0FE2F29D0660FB7
S11307C0771F881FBB1F261737074807AB07B0E8FA
S11307D009F0BB0B802DBF01FF2793585F4F3AF000
S11307E09E3F510578F00C948D040C94D8045F3F1F
S11307F0E4F3983ED4F3869577956795B795F79586
S11308009F5FC9F7880F911D9695879597F908956D
S1130810E1E0660F771F881FBB1F62177307840709
S1130820BA0720F0621B730B840BBA0BEE1F88F718
S1130830E09508950E9421046894B1110C94D804A1
S113084008950E94BD0488F09F5798F0B92F992706
S1130850B751B0F0E1F0660F771F881F991F1AF0A7
S1130860BA95C9F714C0B13091F00E94D704B1E031
S113087008950C94D704672F782F8827B85F39F030
S1130880B93FCCF3869577956795B395D9F73EF440
S113089090958095709561957F4F8F4F9F4F0895E8
S11308A0E89409C097FB3EF4909580957095619506
S11308B07F4F8F4F9F4F9923A9F0F92F96E9BB27BC
S11308C09395F695879577956795B795F111F8CF38
S11308D0FAF4BB0F11F460FF1BC06F5F7F4F8F4FA3
S11308E09F4F16C0882311F096E911C0772321F099
S11308F09EE8872F762F05C0662371F096E8862F31
S113090070E060E02AF09A95660F771F881FDAF787
S1130910880F9695879597F9089597F99F6780E8CA
S113092070E060E008959FEF80EC089500240A943D
S11309301616170618060906089500240A941216B6
S11309401306140605060895092E0394000C11F4E9
S1130950882352F0BB0F40F4BF2B11F460FF04C096
S11309606F5F7F4F8F4F9F4F089557FD9058440FEF
S1130970551F59F05F3F71F04795880F97FB991FFA
S113098061F09F3F79F087950895121613061406B7
S1130990551FF2CF4695F1DF08C016161706180644
S11309A0991FF1CF86957105610508940895E8941F
S11309B0BB2766277727CB0197F908950E94F10496
S11309C00C94A4040E94960438F00E949D0420F024
S11309D0952311F00C948D040C94930411240C941D
S11309E0D8040E94B50470F3959FC1F3950F50E0AD
S11309F0551F629FF001729FBB27F00DB11D639FCD
S1130A00AA27F00DB11DAA1F649F6627B00DA11D72
S1130A10661F829F2227B00DA11D621F739FB00D18
S1130A20A11D621F839FA00D611D221F749F332788
S1130A30A00D611D231F849F600D211D822F762F21
S1130A406A2F11249F5750409AF0F1F088234AF0FE
S1130A50EE0FFF1FBB1F661F771F881F915050406A
S1130A60A9F79E3F510580F00C948D040C94D80492
S1130A705F3FE4F3983ED4F3869577956795B795F1
S1130A80F795E7959F5FC1F7FE2B880F911D96950B
S1130A90879597F90895B7FF0C9453050E94530561
S1130AA0821B930B08950E945E05A59F900DB49F31
S1130AB0900DA49F800D911D11240895A29FB00153
S1130AC0B39FC001A39F700D811D1124911DB29F7E
S1130AD0700D811D1124911D0895A0E0B0E0E3E79D
S1130AE0F5E00C942408AE014B5F5F4FFA0161916D
S1130AF07191AF0180914138909142380E948305F1
S1130B00E2E00C943D08ABE0B0E0E9E8F5E00C94D9
S1130B1014086C017B018A01FC011682178283810F
S1130B2081FFCCC1CE0101963C01F6019381F7010E
S1130B3093FD859193FF81917F01882309F4BAC1C4
S1130B40853239F493FD859193FF81917F0185323C
S1130B5029F4B60190E00E947A07E7CF912C212C6A
S1130B60312CFFE1F315D8F08B3279F038F4803270
S1130B7079F08332A1F4232D20611DC08D3261F000
S1130B80803369F4232D216016C0832D8260382EB2
S1130B90E32DE4603E2E2AC0F32DF8601DC037FC1F
S1130BA02DC020ED280F2A3040F08E32B9F436FCE7
S1130BB081C1232D2064322E19C036FE06C08AE07E
S1130BC0989E200D1124922E11C0EAE02E9E200D35
S1130BD01124222EF32DF0623F2E08C08C3621F40E
S1130BE0832D8068382E02C0883641F4F70193FDC6
S1130BF0859193FF81917F018111B3CF982F9F7DC0
S1130C009554933028F40C5F1F4F9FE399830DC0D4
S1130C10833631F0833771F0833509F059C021C030
S1130C20F801808189830E5F1F4F88248394912C5F
S1130C30530113C02801F2E04F0E511CF801A080AB
S1130C40B18036FE03C0692D70E002C06FEF7FEF04
S1130C50C5010E946F074C018201F32DFF773F2EDF
S1130C6016C0280122E0420E511CF801A080B18078
S1130C7036FE03C0692D70E002C06FEF7FEFC5013F
S1130C800E9464074C01F32DF0683F2E820133FC6F
S1130C901BC0822D90E088169906B0F4B60180E25C
S1130CA090E00E947A072A94F4CFF50137FC8591ED
S1130CB037FE81915F01B60190E00E947A0721100E
S1130CC02A9421E0821A91088114910471F7E8C0F2
S1130CD0843611F0893641F5F80137FE07C060818A
S1130CE07181828193810C5F1F4F08C06081718183
S1130CF0072E000C880B990B0E5F1F4FF32DFF7608
S1130D003F2E97FF09C090958095709561957F4F10
S1130D108F4F9F4FF0683F2E2AE030E0A3010E94DE
S1130D20B607882E861845C0853731F4232D2F7ECB
S1130D30B22E2AE030E025C0932D997FB92E8F364C
S1130D40C1F018F4883579F0B5C0803719F08837C8
S1130D5021F0B0C0E92FE061BE2EB4FE0DC0FB2D22
S1130D60F460BF2E09C034FE0AC0292F2660B22EBB
S1130D7006C028E030E005C020E130E002C020E1F8
S1130D8032E0F801B7FE07C06081718182819381EE
S1130D900C5F1F4F06C06081718180E090E00E5FA0
S1130DA01F4FA3010E94B607882E8618FB2DFF77DC
S1130DB03F2E36FE0DC0232D2E7FA22E891458F40B
S1130DC034FE0BC032FC09C0832D8E7EA82E05C0D4
S1130DD0B82CA32C03C0B82C01C0B92CA4FE0FC09E
S1130DE0FE01E80DF11D8081803321F49A2D997E56
S1130DF0A92E09C0A2FE06C0B394B39404C08A2DE0
S1130E00867809F0B394A3FC11C0A0FE06C0B21406
S1130E1088F4280C922C9B180EC0B21460F4B6010E
S1130E2080E290E00E947A07B394F7CFB21418F4EA
S1130E302B1802C0982C212CA4FE10C0B60180E30C
S1130E4090E00E947A07A2FE17C0A1FC03C088E7C5
S1130E5090E002C088E590E0B6010CC08A2D867847
S1130E6059F0A1FE02C08BE201C080E2A7FC8DE232
S1130E70B60190E00E947A07891438F4B60180E341
S1130E8090E00E947A079A94F7CF8A94F301E80DD0
S1130E90F11D8081B60190E00E947A078110F5CFA0
S1130EA0222009F442CEB60180E290E00E947A0743
S1130EB02A94F6CFF6018681978102C08FEF9FEFC7
S1130EC02B96E2E10C942D08FC01059061507040D2
S1130ED00110D8F7809590958E0F9F1F0895FC01FF
S1130EE06150704001900110D8F7809590958E0F55
S1130EF09F1F08950F931F93CF93DF93FB012381CB
S1130F0021FD03C08FEF9FEF2CC022FF16C0468146
S1130F105781248135814217530744F4A081B1815C
S1130F209D012F5F3F4F208331838C93268137812E
S1130F302F5F3F4F2683378314C08B01EC01FB01E5
S1130F400084F185E02D0995892BE1F6D8011696E8
S1130F508D919C911797019616968D939C93179754
S1130F60CE01DF91CF911F910F910895FA01AA2725
S1130F70283051F1203181F1E8946F936E7F6E5FD8
S1130F807F4F8F4F9F4FAF4FB1E03ED0B4E03CD086
S1130F90670F781F891F9A1FA11D680F791F8A1F69
S1130FA0911DA11D6A0F711D811D911DA11D20D0D0
S1130FB009F468943F912AE0269F11243019305D8A
S1130FC03193DEF6CF010895462F4770405D41937B
S1130FD0B3E00FD0C9F7F6CF462F4F70405D4A33C8
S1130FE018F0495D31FD4052419302D0A9F7EACF90
S1130FF0B4E0A6959795879577956795BA95C9F7BF
S113100000976105710508959B01AC010A2E0694B1
S11310105795479537952795BA95C9F7620F731F6A
S1131020841F951FA01D08952F923F924F925F92A7
S11310306F927F928F929F92AF92BF92CF92DF92E4
S1131040EF92FF920F931F93CF93DF93CDB7DEB749
S1131050CA1BDB0BCDBFDEBF09942A8839884888B8
S11310605F846E847D848C849B84AA84B984C884C0
S1131070DF80EE80FD800C811B81AA81B981CE0FB7
S1111080D11DCDBFDEBFED010895F894FFCF62
S113108E564241543A2025642C20564143433A207B
S108109E25640D0A00A9
S10510A3010046
S9030000FC
