S0200000617474696E79313631345F61636373757065727669736F722E73726563B7
S11300000C943E000C945B000C945B000C945B001D
S11300100C945B000C945B000C945B000C945D00EE
S11300200C945B000C945B000C945B000C945B00E0
S11300300C945B000C945B000C945B000C945B00D0
S11300400C945B000C945B000C945B000C945B00C0
S11300500C945B000C945B000C945B000C945B00B0
S11300600C945B000C945B000C945B000C948D006E
S11300700C945B000C945B000C945B0011241FBE79
S1130080CFEFCDBFDFE3DEBF18E3A0E0B8E3ECE2DF
S1130090FBE002C005900D92A230B107D9F728E326
S11300A0A2E0B8E301C01D92A034B207E1F70E94B8
S11300B006020C9494050C9400001F920F920FB644
S11300C00F9211242F933F934F935F936F937F93DA
S11300D08F939F93AF93BF93EF93FF9381E08093AC
S11300E053010E945C0380910138882329F0809198
S11300F00138815080930138FF91EF91BF91AF9106
S11301009F918F917F916F915F914F913F912F912B
S11301100F900FBE0F901F9018951F920F920FB65D
S11301200F9211242F933F938F939F93EF93FF93F9
S11301301FC08091010881FD1BC080910A389091F5
S11301400B389C012F5F3F4F20930A3830930B38B4
S113015020910008FC01E45FF74C208380910A3869
S113016090910B38809720F010920A3810920B3837
S1130170809101088823ECF22091083830910938E5
S113018080910A3890910B382817390799F4809197
S11301900A3890910B380196809308389093093867
S11301A08091083890910938809720F0109208388F
S11301B010920938FF91EF919F918F913F912F9168
S11301C00F900FBE0F901F901895809141018111DF
S11301D0FCCFE0E4F1E081E087838583828B89E4CE
S11301E0808B80E090E00895E0E5F0E08081846019
S11301F0808380818160808380E090E00895E0E0E6
S1130200F4E0808188608083E0E2F4E080818260B1
S1130210808380E090E008950F931F93CF93C09163
S11302202411E0E0F2E021812E7F2183E0E2F4E07A
S11302302081277F20832081246020830E947704EB
S113024020E030E040E851E40E9405059B01AC0148
S113025064E573E78BE49DE40E94CF0320E030E083
S113026040E05FE30E9463030E9441049B01AC01F0
S1130270AC2FCC0FBB0BBC5F0E9472058B019C01A1
S1130280992324F401501C4F2F4F3F4FD901C8012B
S1130290072E7AE0B595A795979587957A95D1F726
S11302A0702DE0E0F8E08087918780E8858383E023
S11302B08783138680EC868380E090E0CF911F9142
S11302C00F9108959091040895FFFCCFE0E0F8E0C9
S11302D094819064948382838091040886FFFCCF88
S11302E080E090E00895EF92FF921F93CF93DF9305
S11302F07C01162FC0E0D0E009C0F701EC0FFD1F10
S113030060E070E080810E9462012196812F90E07C
S1130310C817D90790F3DF91CF911F91FF90EF9009
S1130320089580910738826080930738E0E0F4E014
S11303308581886085830895809107388D7F8093B7
S11303400738E0E0F4E08681886086830895E0E081
S1130350F4E08189887F818B8289887F828B81897F
S11303608460818B82898460828BE0E0F6E081E0A6
S11303708083118297E1928390EA93831482158299
S1130380118612868387148680E090E00895809118
S1130390080680FD3AC080910B0680FF27C080913B
S11303A006068F71813069F48091100690911106D0
S11303B08093053890930638809102388160809349
S11303C00238809106068F71823069F4809110069C
S11303D090911106809303389093043880910238E9
S11303E082608093023881E080930B068091060638
S11303F08F71813021F482E08093060603C081E08E
S11304008093060681E0809308060895F8940E947C
S1130410E5000E94F4000E94FF0060E072EC81E0BD
S113042090E00E940C010E94A70178940E94E702C8
S113043080E090E00E94EE0283E791E00E94F302E4
S1130440109200380E94910102C00E94C70180915D
S1130450023883708330C9F7109202380E94C701B2
S1130460209108383091093880910A3890910B38DE
S113047028173907D9F080910838909109389C01E0
S11304802F5F3F4F2093083830930938FC01E45F15
S1130490F74C80810E94F8028091083890910938C5
S11304A0809720F010920838109209388091003813
S11304B08823A1F20E949C018895109200380E9422
S11304C09101CCCFEF920F93FC0180E8808361838C
S11304D0428323830483E582460F240F020FE00E38
S11304E0E68286E887830F91EF900895EF920F9349
S11304F0CF93DF93CDB7DEB72897CDBFDEBFFE0124
S1130500319698E0DF011D929A95E9F7E0913C3825
S1130510F0913D38309711F0099551C09AE09093CD
S113052001388330E9F0893099F1813009F047C00E
S1130530E090033800910438209105384091063842
S113054062E0CE0101960E946202E0913A38F09195
S11305503B383097A1F168E0CE01019609952FC090
S1130560E090033800910438209105384091063812
S113057064E0CE0101960E946202E0913A38F09163
S11305803B383097E1F068E0CE010196099517C039
S1130590E0900338009104382091053840910638E2
S11305A06AE0CE0101960E946202E0913A38F0912D
S11305B03B38309721F068E0CE01019609952896E2
S11305C0CDBFDEBFDF91CF910F91EF90089581E011
S11305D090E08093383890933938089580933C386C
S11305E090933D38089580933A3890933B3808951A
S11305F00F931F932091383830913938232B09F405
S113060058C090913E38992319F09130B1F051C0FF
S1130610803809F04EC091E090933E3841E050E0BC
S113062060E070E040933438509335386093363846
S11306307093373880932C383CC0409134385091B3
S11306403538609136387091373848305105610536
S1130650710568F58A019B010F5F1F4F2F4F3F4FB4
S11306600093343810933538209336383093373824
S1130670FA01E45DF74C808308301105210531054A
S1130680C1F4863889F4ECE2F8E381816281438124
S113069024810581982F960F940F920F900F368125
S11306A0931302C00E94760210923E3802C0109248
S11306B03E381F910F91089580913F388F5F80934A
S11306C03F3808955058BB27AA270E947A030C94F8
S11306D0CB040E94BD0438F00E94C40420F039F415
S11306E09F3F19F426F40C94BA040EF4E095E7FB4A
S11306F00C94B404E92F0E94DC0458F3BA1762077F
S113070073078407950720F079F4A6F50C94FE048A
S11307100EF4E0950B2EBA2FA02D0B01B901900118
S11307200C01CA01A0011124FF27591B99F0593F5C
S113073050F4503E68F11A16F040A22F232F342FA4
S11307404427585FF3CF469537952795A795F040F2
S11307505395C9F77EF41F16BA0B620B730B840B07
S1130760BAF09150A1F0FF0FBB1F661F771F881FBF
S1130770C2F70EC0BA0F621F731F841F48F4879517
S113078077956795B795F7959E3F08F0B0CF939509
S1130790880F08F09927EE0F9795879508950E9482
S11307A0E3030C94CB040E94C40458F00E94BD04DB
S11307B040F029F45F3F29F00C94B40451110C94D7
S11307C0FF040C94BA040E94DC0468F39923B1F387
S11307D0552391F3951B550BBB27AA276217730763
S11307E0840738F09F5F5F4F220F331F441FAA1FF7
S11307F0A9F335D00E2E3AF0E0E832D091505040B3
S1130800E695001CCAF72BD0FE2F29D0660F771F60
S1130810881FBB1F261737074807AB07B0E809F046
S1130820BB0B802DBF01FF2793585F4F3AF09E3FCB
S1130830510578F00C94B4040C94FF045F3FE4F386
S1130840983ED4F3869577956795B795F7959F5F0E
S1130850C9F7880F911D9695879597F90895E1E05A
S1130860660F771F881FBB1F621773078407BA07B9
S113087020F0621B730B840BBA0BEE1F88F7E09514
S113088008950E9448046894B1110C94FF040895DB
S11308900E94E40488F09F5798F0B92F9927B75124
S11308A0B0F0E1F0660F771F881F991F1AF0BA9510
S11308B0C9F714C0B13091F00E94FE04B1E008956C
S11308C00C94FE04672F782F8827B85F39F0B93F5E
S11308D0CCF3869577956795B395D9F73EF49095C3
S11308E08095709561957F4F8F4F9F4F0895E89441
S11308F009C097FB3EF490958095709561957F4F64
S11309008F4F9F4F9923A9F0F92F96E9BB27939511
S1130910F695879577956795B795F111F8CFFAF421
S1130920BB0F11F460FF1BC06F5F7F4F8F4F9F4F52
S113093016C0882311F096E911C0772321F09EE8B0
S1130940872F762F05C0662371F096E8862F70E016
S113095060E02AF09A95660F771F881FDAF7880FF0
S11309609695879597F9089597F99F6780E870E0C1
S113097060E008959FEF80EC089500240A94161611
S1130980170618060906089500240A941216130679
S1130990140605060895092E0394000C11F4882307
S11309A052F0BB0F40F4BF2B11F460FF04C06F5F23
S11309B07F4F8F4F9F4F089557FD9058440F551FF9
S11309C059F05F3F71F04795880F97FB991F61F0CD
S11309D09F3F79F087950895121613061406551F44
S11309E0F2CF4695F1DF08C0161617061806991FB0
S11309F0F1CF86957105610508940895E894BB27A5
S1130A0066277727CB0197F908950E9418050C945F
S1130A10CB040E94BD0438F00E94C40420F0952346
S1130A2011F00C94B4040C94BA0411240C94FF0433
S1130A300E94DC0470F3959FC1F3950F50E0551F9D
S1130A40629FF001729FBB27F00DB11D639FAA271F
S1130A50F00DB11DAA1F649F6627B00DA11D661F6E
S1130A60829F2227B00DA11D621F739FB00DA11D8F
S1130A70621F839FA00D611D221F749F3327A00D49
S1130A80611D231F849F600D211D822F762F6A2FE5
S1130A9011249F5750409AF0F1F088234AF0EE0F4A
S1130AA0FF1FBB1F661F771F881F91505040A9F777
S1130AB09E3F510580F00C94B4040C94FF045F3FF6
S1130AC0E4F3983ED4F3869577956795B795F795B3
S1130AD0E7959F5FC1F7FE2B880F911D969587952B
S1130AE097F90895B7FF0C947A050E947A05821B42
S1130AF0930B08950E948505A59F900DB49F900DBA
S1130B00A49F800D911D11240895A29FB001B39F4D
S1130B10C001A39F700D811D1124911DB29F700D02
S10F0B20811D1124911D0895F894FFCF4D
S1050B2C010AB8
S9030000FC
