S0200000617474696E79313631345F61636373757065727669736F722E73726563B7
S11300000C9451000C946E000C946E000C946E00D1
S11300100C946E000C946E000C946E000C947000A2
S11300200C946E000C946E000C946E000C946E0094
S11300300C946E000C946E000C946E000C946E0084
S11300400C946E000C946E000C946E000C946E0074
S11300500C946E000C946E000C946E000C946E0064
S11300600C946E000C946E000C946E000C94A7001B
S11300700C946E000C946E000C946E003003E60336
S11300804903E603E603E603E603E6036203E60345
S11300907B03E6039403E603E603E603BA03E603FD
S11300A0D10311241FBECFEFCDBFDFE3DEBF18E3C2
S11300B0A0E0B8E3EEEBFDE002C005900D92A6309F
S11300C0B107D9F728E3A6E0B8E301C01D92A6342E
S11300D0B207E1F70E947A020C94DD060C9400004A
S11300E01F920F920FB60F9211242F933F934F93A9
S11300F05F936F937F938F939F93AF93BF93EF938C
S1130100FF9381E0809353010E949C048091003806
S11301108F3118F08EE18093003880910038882365
S113012029F080910038815080930038FF91EF913D
S1130130BF91AF919F918F917F916F915F914F91FB
S11301403F912F910F900FBE0F901F9018951F9203
S11301500F920FB60F9211242F933F938F939F9377
S1130160EF93FF931FC08091010881FD1BC0809114
S11301700F38909110389C012F5F3F4F20930F3818
S11301803093103820910008FC01EF5EF74C208377
S113019080910F3890911038809720F010920F388A
S11301A010921038809101088823ECF220910D38C8
S11301B030910E3880910F389091103828173907F4
S11301C099F480910F3890911038019680930D38EE
S11301D090930E3880910D3890910E38809720F0CE
S11301E010920D3810920E38FF91EF919F918F91DC
S11301F03F912F910F900FBE0F901F9018958091F3
S113020041018111FCCFE0E4F1E081E08783858343
S1130210828B89E4808B80E090E00895E0E5F0E053
S113022080818460808380818160808380E090E02D
S11302300895E0E0F4E0808188608083E0E2F4E007
S113024080818260808380E090E008950F931F9303
S1130250CF93C0912411E0E0F2E021812E7F21832D
S1130260E0E2F4E02081277F208320812460208342
S11302700E94BA0520E030E040E851E40E944806BC
S11302809B01AC0164E573E78BE49DE40E941205D5
S113029020E030E040E05FE30E94A6040E94840571
S11302A09B01AC01AC2FCC0FBB0BBC5F0E94BB0607
S11302B08B019C01992324F401501C4F2F4F3F4F75
S11302C0D901C801072E7AE0B595A795979587952A
S11302D07A95D1F7702DE0E0F8E08087918780E887
S11302E0858383E08783138680EC868380E090E0B7
S11302F0CF911F910F9108959091040895FFFCCF21
S1130300E0E0F8E09481906494838283809104080F
S113031086FFFCCF80E090E00895EF92FF921F9358
S1130320CF93DF937C01162FC0E0D0E009C0F70122
S1130330EC0FFD1F60E070E080810E947C0121963B
S1130340812F90E0C817D90790F3DF91CF911F91C7
S1130350FF90EF90089580910C38816080930C3861
S1130360E0E2F4E0858182608583089580910C3811
S11303708E7F80930C38E0E2F4E08681826086838D
S1130380089580910C38826080930C38E0E0F4E0AA
S1130390858188608583089580910C388D7F809352
S11303A00C38E0E0F4E086818860868308958091CB
S11303B00C38817090E00895E0E0F4E08189887F52
S11303C0818B8289887F828B81898460818B8289F9
S11303D08460828BE0E0F6E081E08083118297E123
S11303E0928390EA938314821582118612868387FE
S11303F0148680E090E008958091063882608093AE
S113040006388091080680FD3AC080910B0680FF73
S113041027C0809106068F71813069F4809110069F
S11304209091110680930A3890930B388091073885
S1130430816080930738809106068F71823069F459
S11304408091100690911106809308389093093892
S11304508091073882608093073881E080930B068F
S1130460809106068F71813021F482E08093060624
S113047003C081E08093060681E080930806089516
S11304800F931F93CF93DF9300910838109109388D
S1130490C0910138D09102380C171D0718F08EE175
S11304A0809300380E94D701892BD1F00C171D07C7
S11304B058F020910A3830910B388091033890918C
S11304C004382817390788F48091003881110DC049
S11304D00E94B601809106388E7F8093063805C04D
S11304E00C171D0710F00E94AB01DF91CF911F91F3
S11304F00F910895F8940E94FF000E940E010E943B
S1130500190160E072EC81E090E00E9426010E94F3
S1130510DC0178940E94FD0380E090E00E940404D2
S11305208DE891E00E940904109206380E94C101EE
S1130530DFEF0E94A204C82FD817B9F00E94D70198
S1130540892B91F0009108382091093840910A389C
S113055060910B3881E00E940E048091063881601E
S113056080930638DC2F01C0DC2F0E94FC018091AF
S113057007388370833049F4109207380E94400290
S1130580809106388D7F8093063820910D38309104
S11305900E3880910F389091103828173907D9F008
S11305A080910D3890910E389C012F5F3F4F20931E
S11305B00D3830930E38FC01EF5EF74C80810E94B9
S11305C0380480910D3890910E38809720F0109265
S11305D00D3810920E3880910638837009F0A9CF37
S11305E00E94CC0188950E94C101A3CFEF920F9382
S11305F0FC0180E880836183428323830483E58252
S1130600460F240F020FE00EE68286E887830F91DF
S1130610EF900895EF920F93CF93DF93CDB7DEB7AA
S11306202897CDBFDEBFDE01119698E0FD0111923F
S11306309A95E9F7E0914238F0914338309711F0F8
S11306400995D3C09EE19093003890E0FC01319766
S1130650E331F10508F0BAC0E25CFF4F0C94B50633
S1130660E09008380091093820910A3840910B38FD
S113067062E0CE0101960E94F602E0914038F091CA
S11306804138309709F4A2C068E0CE01019609957B
S11306909DC0E09008380091093820910A384091B3
S11306A00B3864E0CE0101960E94F602E0914038D6
S11306B0F0914138309709F489C068E0CE01019681
S11306C0099584C0E09008380091093820910A38CF
S11306D040910B386AE0CE0101960E94F602E09147
S11306E04038F0914138309709F470C068E0CE0189
S11306F0019609956BC0E090013800910238209171
S11307000338409104386CE0CE0101960E94F60251
S1130710E0914038F0914138309709F457C068E0CF
S1130720CE010196099552C070E0762F6627640FBA
S1130730711D609303387093043830E0322F222700
S1130740200F311D2093013830930238E22E032FFD
S1130750262F472F6EE0CE0101960E94F602E0910B
S11307604038F0914138309789F168E0CE01019624
S113077009952CC081E080933D38E12C00E020E015
S113078041E062E1CE0101960E94F602E091403818
S1130790F09141383097D1F068E0CE010196099587
S11307A015C010923D38E12C00E020E040E064E107
S11307B0CE0101960E94F602E0914038F091413852
S11307C0309721F068E0CE010196099580913D387B
S11307D0882331F08091063881608093063805C003
S11307E0809106388E7F809306382896CDBFDEBF71
S11307F0DF91CF910F91EF90089581E090E0809385
S11308003E3890933F38089580934238909343380C
S1130810089580934038909341380895EF920F9350
S1130820CF93DF93CDB7DEB72897CDBFDEBFFE01F0
S1130830319698E0DF011D929A95E9F7E02E022F98
S1130840242F462F682FCF010E94F602E0914038F2
S1130850F0914138309721F068E0CE010196099576
S11308602896CDBFDEBFDF91CF910F91EF90089511
S11308700F931F9320913E3830913F38232B09F476
S113088058C090914438992319F09130B1F051C077
S1130890803809F04EC091E09093443841E050E034
S11308A060E070E04093393850933A3860933B38B5
S11308B070933C38809331383CC040913938509122
S11308C03A3860913B3870913C38483051056105A5
S11308D0710568F58A019B010F5F1F4F2F4F3F4F32
S11308E00093393810933A3820933B3830933C388E
S11308F0FA01EF5CF74C80830830110521053105BE
S1130900C1F4863889F4E1E3F8E3818162814381AB
S113091024810581982F960F940F920F900F3681A2
S1130920931302C00E940A031092443802C010922A
S113093044381F910F910895809145388F5F8093BB
S1130940453808958091453808955058BB27AA2703
S11309500E94BD040C940E060E94000638F00E940A
S1130960070620F039F49F3F19F426F40C94FD0592
S11309700EF4E095E7FB0C94F705E92F0E941F069F
S113098058F3BA17620773078407950720F079F4C0
S1130990A6F50C9441060EF4E0950B2EBA2FA02D6B
S11309A00B01B90190010C01CA01A0011124FF2718
S11309B0591B99F0593F50F4503E68F11A16F04013
S11309C0A22F232F342F4427585FF3CF4695379512
S11309D02795A795F0405395C9F77EF41F16BA0BD7
S11309E0620B730B840BBAF09150A1F0FF0FBB1F85
S11309F0661F771F881FC2F70EC0BA0F621F731FCE
S1130A00841F48F4879577956795B795F7959E3F2A
S1130A1008F0B0CF9395880F08F09927EE0F9795BB
S1130A20879508950E9426050C940E060E940706D9
S1130A3058F00E94000640F029F45F3F29F00C941E
S1130A40F70551110C9442060C94FD050E941F06F3
S1130A5068F39923B1F3552391F3951B550BBB27E9
S1130A60AA2762177307840738F09F5F5F4F220F2E
S1130A70331F441FAA1FA9F335D00E2E3AF0E0E825
S1130A8032D091505040E695001CCAF72BD0FE2F6F
S1130A9029D0660F771F881FBB1F26173707480703
S1130AA0AB07B0E809F0BB0B802DBF01FF279358BB
S1130AB05F4F3AF09E3F510578F00C94F7050C9483
S1130AC042065F3FE4F3983ED4F3869577956795A5
S1130AD0B795F7959F5FC9F7880F911D96958795F0
S1130AE097F90895E1E0660F771F881FBB1F62170F
S1130AF073078407BA0720F0621B730B840BBA0BCD
S1130B00EE1F88F7E09508950E948B056894B11153
S1130B100C94420608950E94270688F09F5798F087
S1130B20B92F9927B751B0F0E1F0660F771F881FEE
S1130B30991F1AF0BA95C9F714C0B13091F00E9408
S1130B404106B1E008950C944106672F782F882759
S1130B50B85F39F0B93FCCF3869577956795B3952F
S1130B60D9F73EF490958095709561957F4F8F4F9E
S1130B709F4F0895E89409C097FB3EF490958095A3
S1130B80709561957F4F8F4F9F4F9923A9F0F92F4F
S1130B9096E9BB279395F695879577956795B795CD
S1130BA0F111F8CFFAF4BB0F11F460FF1BC06F5FB3
S1130BB07F4F8F4F9F4F16C0882311F096E911C0C5
S1130BC0772321F09EE8872F762F05C0662371F0E6
S1130BD096E8862F70E060E02AF09A95660F771FFA
S1130BE0881FDAF7880F9695879597F9089597F9EE
S1130BF09F6780E870E060E008959FEF80EC0895BF
S1130C0000240A94161617061806090608950024E7
S1130C100A9412161306140605060895092E039461
S1130C20000C11F4882352F0BB0F40F4BF2B11F4D5
S1130C3060FF04C06F5F7F4F8F4F9F4F089557FD34
S1130C409058440F551F59F05F3F71F04795880F36
S1130C5097FB991F61F09F3F79F0879508951216CD
S1130C6013061406551FF2CF4695F1DF08C0161679
S1130C7017061806991FF1CF86957105610508942A
S1130C800895E894BB2766277727CB0197F9089541
S1130C900E945B060C940E060E94000638F00E9427
S1130CA0070620F0952311F00C94F7050C94FD052C
S1130CB011240C9442060E941F0670F3959FC1F301
S1130CC0950F50E0551F629FF001729FBB27F00DF6
S1130CD0B11D639FAA27F00DB11DAA1F649F66274B
S1130CE0B00DA11D661F829F2227B00DA11D621F9A
S1130CF0739FB00DA11D621F839FA00D611D221F54
S1130D00749F3327A00D611D231F849F600D211D37
S1130D10822F762F6A2F11249F5750409AF0F1F0BA
S1130D2088234AF0EE0FFF1FBB1F661F771F881F23
S1130D3091505040A9F79E3F510580F00C94F7055F
S1130D400C9442065F3FE4F3983ED4F3869577957E
S1130D506795B795F795E7959F5FC1F7FE2B880FC9
S1130D60911D9695879597F90895EE0FFF1F0590AD
S1130D70F491E02D0994B7FF0C94C3060E94C306B6
S1130D80821B930B08950E94CE06A59F900DB49FDD
S1130D90900DA49F800D911D11240895A29FB00170
S1130DA0B39FC001A39F700D811D1124911DB29F9B
S1110DB0700D811D1124911D0895F894FFCF3C
S1090DBE1E4C024C020071
S9030000FC
