S0200000617474696E79313631345F61636373757065727669736F722E73726563B7
S11300000C943E000C945B000C945B000C945B001D
S11300100C945B000C945B000C945B000C945D00EE
S11300200C945B000C945B000C945B000C945B00E0
S11300300C945B000C945B000C945B000C945B00D0
S11300400C945B000C945B000C945B000C945B00C0
S11300500C945B000C945B000C945B000C945B00B0
S11300600C945B000C945B000C945B000C94940067
S11300700C945B000C945B000C945B0011241FBE79
S1130080CFEFCDBFDFE3DEBF18E3A0E0B8E3ECEAD7
S1130090FCE002C005900D92A430B107D9F728E323
S11300A0A4E0B8E301C01D92A434B207E1F70E94B2
S11300B06D020C9454060C9400001F920F920FB61C
S11300C00F9211242F933F934F935F936F937F93DA
S11300D08F939F93AF93BF93EF93FF9381E08093AC
S11300E053010E941904809105388F3118F08EE174
S11300F08093053880910538882329F0809105384C
S1130100815080930538FF91EF91BF91AF919F91FA
S11301108F917F916F915F914F913F912F910F90AC
S11301200FBE0F901F9018951F920F920FB60F924B
S113013011242F933F938F939F93EF93FF931FC0AB
S11301408091010881FD1BC080910E3890910F3879
S11301509C012F5F3F4F20930E3830930F3820912E
S11301600008FC01E05FF74C208380910E389091E9
S11301700F38809720F010920E3810920F3880912B
S113018001088823ECF220910C3830910D388091CD
S11301900E3890910F382817390799F480910E384A
S11301A090910F38019680930C3890930D3880917C
S11301B00C3890910D38809720F010920C381092E2
S11301C00D38FF91EF919F918F913F912F910F9057
S11301D00FBE0F901F901895809141018111FCCFA3
S11301E0E0E4F1E081E087838583828B89E4808B7E
S11301F080E090E00895E0E5F0E080818460808311
S113020080818160808380E090E00895E0E0F4E004
S1130210808188608083E0E2F4E080818260808372
S113022080E090E008950F931F93CF93C091241121
S1130230E0E0F2E021812E7F2183E0E2F4E02081FE
S1130240277F20832081246020830E94370520E0BB
S113025030E040E851E40E94C5059B01AC0164E52F
S113026073E78BE49DE40E948F0420E030E040E0DB
S11302705FE30E9423040E9401059B01AC01AC2FA3
S1130280CC0FBB0BBC5F0E9432068B019C019923EF
S113029024F401501C4F2F4F3F4FD901C801072EA2
S11302A07AE0B595A795979587957A95D1F7702DAE
S11302B0E0E0F8E08087918780E8858383E08783A6
S11302C0138680EC868380E090E0CF911F910F919C
S11302D008959091040895FFFCCFE0E0F8E0948144
S11302E09064948382838091040886FFFCCF80E02D
S11302F090E00895EF92FF921F93CF93DF937C01D8
S1130300162FC0E0D0E009C0F701EC0FFD1F60E03C
S113031070E080810E9469012196812F90E0C817C6
S1130320D90790F3DF91CF911F91FF90EF9008953B
S113033080910B38816080930B38E0E2F4E0858192
S113034082608583089580910B388E7F80930B386B
S1130350E0E2F4E0868182608683089580910B3820
S1130360826080930B38E0E0F4E0858188608583C7
S1130370089580910B388D7F80930B38E0E0F4E092
S1130380868188608683089580910B38817090E01F
S11303900895E0E0F4E08189887F818B8289887FF9
S11303A0828B81898460818B82898460828BE0E086
S11303B0F6E081E08083118297E1928390EA93834F
S11303C014821582118612868387148680E090E059
S11303D008958091080680FD40C080910B0680FF3F
S11303E028C0809106068F71813071F480911006C7
S11303F0909111068093093890930A3880910638B9
S113040081608093063812C0809106068F71823015
S113041069F48091100690911106809307389093A7
S113042008388091063882608093063881E0809392
S11304300B06809106068F71813021F482E080934F
S1130440060603C081E08093060681E080930806D7
S11304508091043882608093043808950F931F9329
S1130460CF93DF930091073810910838C09100387A
S1130470D09101380C171D0718F08EE180930538D0
S11304800E94C401892BD1F00C171D0758F020914C
S1130490093830910A38809102389091033828172E
S11304A03907B0F480910538811112C00E94A3016C
S11304B0809104388E7F809304380AC00C171D077E
S11304C038F00E9498018091043881608093043848
S11304D0DF91CF911F910F910895F8940E94EC0041
S11304E00E94FB000E94060160E072EC81E090E053
S11304F00E9413010E94C90178940E94A40380E021
S113050090E00E94AB038AE791E00E94B00310924E
S113051004380E94AE01DFEF01C0DC2F0E941F04EB
S1130520C82FD81301C0CD2F0E94E901809106384D
S11305308370833049F4109206380E942E02809111
S113054004388D7F8093043820910C3830910D3815
S113055080910E3890910F3828173907D9F080917F
S11305600C3890910D389C012F5F3F4F20930C382D
S113057030930D38FC01E05FF74C80810E94B50395
S113058080910C3890910D38809720F010920C389F
S113059010920D3880910438837009F0BECF0E9408
S11305A0B90188950E94AE01B8CFEF920F93FC0178
S11305B080E880836183428323830483E582460F3A
S11305C0240F020FE00EE68286E887830F91EF90F6
S11305D00895EF920F93CF93DF93CDB7DEB72897AB
S11305E0CDBFDEBFFE01319698E0DF011D929A95E2
S11305F0E9F7E0914038F0914138309711F00995CE
S11306009BC09EE190930538893009F43FC028F4DB
S1130610813051F0833009F18FC08B3009F44FC021
S11306208D3009F464C088C0E09007380091083820
S11306302091093840910A3862E0CE0101960E9467
S1130640D502E0913E38F0913F38309709F474C0F8
S113065068E0CE01019609956FC0E09007380091DB
S113066008382091093840910A3864E0CE01019697
S11306700E94D502E0913E38F0913F38309709F45A
S11306805BC068E0CE010196099556C0E09007383A
S1130690009108382091093840910A386AE0CE0167
S11306A001960E94D502E0913E38F0913F38309790
S11306B009F442C068E0CE01019609953DC0E0907E
S11306C000380091013820910238409103386CE0E1
S11306D0CE0101960E94D502E0913E38F0913F3858
S11306E0309751F168E0CE010196099525C070E07C
S11306F0762F6627640F711D609302387093033858
S113070030E0322F2227200F311D20930038309300
S11307100138E22E032F262F472F6EE0CE010196DB
S11307200E94D502E0913E38F0913F38309721F095
S113073068E0CE01019609952896CDBFDEBFDF9112
S1130740CF910F91EF90089581E090E080933C3831
S113075090933D380895809340389093413808959C
S113076080933E3890933F3808950F931F932091C0
S11307703C3830913D38232B09F458C090914238CD
S1130780992319F09130B1F051C0803809F04EC06E
S113079091E09093423841E050E060E070E0409393
S11307A038385093393860933A3870933B38809393
S11307B030383CC0409138385091393860913A38DB
S11307C070913B38483051056105710568F58A011F
S11307D09B010F5F1F4F2F4F3F4F009338381093EB
S11307E0393820933A3830933B38FA01E05DF74CBE
S11307F080830830110521053105C1F4863889F458
S1130800E0E3F8E381816281438124810581982FAB
S1130810960F940F920F900F3681931302C00E948B
S1130820E9021092423802C0109242381F910F918F
S11308300895809143388F5F809343380895809161
S1130840433808955058BB27AA270E943A040C94B1
S11308508B050E947D0538F00E94840520F039F450
S11308609F3F19F426F40C947A050EF4E095E7FB07
S11308700C947405E92F0E949C0558F3BA1762077B
S113088073078407950720F079F4A6F50C94BE0548
S11308900EF4E0950B2EBA2FA02D0B01B901900197
S11308A00C01CA01A0011124FF27591B99F0593FDB
S11308B050F4503E68F11A16F040A22F232F342F23
S11308C04427585FF3CF469537952795A795F04071
S11308D05395C9F77EF41F16BA0B620B730B840B86
S11308E0BAF09150A1F0FF0FBB1F661F771F881F3E
S11308F0C2F70EC0BA0F621F731F841F48F4879596
S113090077956795B795F7959E3F08F0B0CF939587
S1130910880F08F09927EE0F9795879508950E9400
S1130920A3040C948B050E94840558F00E947D0555
S113093040F029F45F3F29F00C94740551110C9494
S1130940BF050C947A050E949C0568F39923B1F3C2
S1130950552391F3951B550BBB27AA2762177307E1
S1130960840738F09F5F5F4F220F331F441FAA1F75
S1130970A9F335D00E2E3AF0E0E832D09150504031
S1130980E695001CCAF72BD0FE2F29D0660F771FDF
S1130990881FBB1F261737074807AB07B0E809F0C5
S11309A0BB0B802DBF01FF2793585F4F3AF09E3F4A
S11309B0510578F00C9474050C94BF055F3FE4F383
S11309C0983ED4F3869577956795B795F7959F5F8D
S11309D0C9F7880F911D9695879597F90895E1E0D9
S11309E0660F771F881FBB1F621773078407BA0738
S11309F020F0621B730B840BBA0BEE1F88F7E09593
S1130A0008950E9408056894B1110C94BF050895D7
S1130A100E94A40588F09F5798F0B92F9927B751E1
S1130A20B0F0E1F0660F771F881F991F1AF0BA958E
S1130A30C9F714C0B13091F00E94BE05B1E0089529
S1130A400C94BE05672F782F8827B85F39F0B93F1B
S1130A50CCF3869577956795B395D9F73EF4909541
S1130A608095709561957F4F8F4F9F4F0895E894BF
S1130A7009C097FB3EF490958095709561957F4FE2
S1130A808F4F9F4F9923A9F0F92F96E9BB27939590
S1130A90F695879577956795B795F111F8CFFAF4A0
S1130AA0BB0F11F460FF1BC06F5F7F4F8F4F9F4FD1
S1130AB016C0882311F096E911C0772321F09EE82F
S1130AC0872F762F05C0662371F096E8862F70E095
S1130AD060E02AF09A95660F771F881FDAF7880F6F
S1130AE09695879597F9089597F99F6780E870E040
S1130AF060E008959FEF80EC089500240A94161690
S1130B00170618060906089500240A9412161306F7
S1130B10140605060895092E0394000C11F4882385
S1130B2052F0BB0F40F4BF2B11F460FF04C06F5FA1
S1130B307F4F8F4F9F4F089557FD9058440F551F77
S1130B4059F05F3F71F04795880F97FB991F61F04B
S1130B509F3F79F087950895121613061406551FC2
S1130B60F2CF4695F1DF08C0161617061806991F2E
S1130B70F1CF86957105610508940895E894BB2723
S1130B8066277727CB0197F908950E94D8050C941E
S1130B908B050E947D0538F00E94840520F0952382
S1130BA011F00C9474050C947A0511240C94BF056F
S1130BB00E949C0570F3959FC1F3950F50E0551F5B
S1130BC0629FF001729FBB27F00DB11D639FAA279E
S1130BD0F00DB11DAA1F649F6627B00DA11D661FED
S1130BE0829F2227B00DA11D621F739FB00DA11D0E
S1130BF0621F839FA00D611D221F749F3327A00DC8
S1130C00611D231F849F600D211D822F762F6A2F63
S1130C1011249F5750409AF0F1F088234AF0EE0FC8
S1130C20FF1FBB1F661F771F881F91505040A9F7F5
S1130C309E3F510580F00C9474050C94BF055F3FF2
S1130C40E4F3983ED4F3869577956795B795F79531
S1130C50E7959F5FC1F7FE2B880F911D96958795A9
S1130C6097F90895B7FF0C943A060E943A06821B3E
S1130C70930B08950E944506A59F900DB49F900D77
S1130C80A49F800D911D11240895A29FB001B39FCC
S1130C90C001A39F700D811D1124911DB29F700D81
S10F0CA0811D1124911D0895F894FFCFCC
S1070CAC4C024C02A4
S9030000FC
