S0200000617474696E79313631345F61636373757065727669736F722E73726563B7
S11300000C943E000C9450000C9450000C9450003E
S11300100C9450000C9450000C9450000C9452001A
S11300200C9450000C9450000C9450000C9450000C
S11300300C9450000C9450000C9450000C945000FC
S11300400C9450000C9450000C9450000C945000EC
S11300500C9450000C9450000C9450000C945000DC
S11300600C9450000C9450000C9450000C946300B9
S11300700C9450000C9450000C94500011241FBE9A
S1130080CFEFCDBFDFE3DEBF28E3A0E0B8E301C0DC
S11300901D92A532B207E1F70E9429010C94860350
S11300A00C9400001F920F920FB60F9211248F939D
S11300B081E080935301809300388F910F900FBE9D
S11300C00F901F9018951F920F920FB60F92112444
S11300D02F933F938F939F93EF93FF931FC0809130
S11300E0010881FD1BC080910338909104389C0164
S11300F02F5F3F4F2093033830930438209100083A
S1130100FC01EB5FF74C2083809103389091043815
S1130110809720F0109203381092043880910108DF
S11301208823ECF220910138309102388091033811
S1130130909104382817390799F4809103389091E5
S113014004380196809301389093023880910138E5
S113015090910238809720F0109201381092023862
S1130160FF91EF919F918F913F912F910F900FBE2F
S11301700F901F901895809141018111FCCFE0E40C
S1130180F1E081E087838583828B89E4808B80E042
S113019090E008950F931F93CF93C0912411E0E052
S11301A0F2E021812E7F2183E0E2F4E02081277FA9
S11301B020832081246020830E94690220E030E0B3
S11301C040E851E40E94F7029B01AC0164E573E747
S11301D08BE49DE40E94C10120E030E040E05FE355
S11301E00E9455010E9433029B01AC01AC2FCC0F3D
S11301F0BB0BBC5F0E9464038B019C01992324F414
S113020001501C4F2F4F3F4FD901C801072E7AE0F0
S1130210B595A795979587957A95D1F7702DE0E0D8
S1130220F8E08087918780E8858383E0878313865D
S113023080EC868380E090E0CF911F910F91089528
S11302409091040895FFFCCF8093020880E090E031
S11302500895F8940E94BB0060E072EC81E090E0A5
S11302600E94CA00789480910038882339F060E0B5
S113027070E084E70E942001109200382091013838
S11302803091023880910338909104382817390747
S113029051F38091013890910238809720F31092A5
S11302A0013810920238DFCF5058BB27AA270E948A
S11302B06C010C94BD020E94AF0238F00E94B60299
S11302C020F039F49F3F19F426F40C94AC020EF498
S11302D0E095E7FB0C94A602E92F0E94CE0258F3A6
S11302E0BA17620773078407950720F079F4A6F517
S11302F00C94F0020EF4E0950B2EBA2FA02D0B01F6
S1130300B90190010C01CA01A0011124FF27591B56
S113031099F0593F50F4503E68F11A16F040A22F5C
S1130320232F342F4427585FF3CF469537952795CD
S1130330A795F0405395C9F77EF41F16BA0B620BCC
S1130340730B840BBAF09150A1F0FF0FBB1F661F13
S1130350771F881FC2F70EC0BA0F621F731F841F56
S113036048F4879577956795B795F7959E3F08F07C
S1130370B0CF9395880F08F09927EE0F979587953E
S113038008950E94D5010C94BD020E94B60258F053
S11303900E94AF0240F029F45F3F29F00C94A602BA
S11303A051110C94F1020C94AC020E94CE0268F339
S11303B09923B1F3552391F3951B550BBB27AA271A
S11303C062177307840738F09F5F5F4F220F331F54
S11303D0441FAA1FA9F335D00E2E3AF0E0E832D01C
S11303E091505040E695001CCAF72BD0FE2F29D01F
S11303F0660F771F881FBB1F261737074807AB07F1
S1130400B0E809F0BB0B802DBF01FF2793585F4F65
S11304103AF09E3F510578F00C94A6020C94F10238
S11304205F3FE4F3983ED4F3869577956795B79547
S1130430F7959F5FC9F7880F911D9695879597F952
S11304400895E1E0660F771F881FBB1F62177307CB
S11304508407BA0720F0621B730B840BBA0BEE1FE0
S113046088F7E09508950E943A026894B1110C94BB
S1130470F10208950E94D60288F09F5798F0B92F90
S11304809927B751B0F0E1F0660F771F881F991FC5
S11304901AF0BA95C9F714C0B13091F00E94F00275
S11304A0B1E008950C94F002672F782F8827B85F85
S11304B039F0B93FCCF3869577956795B395D9F71D
S11304C03EF490958095709561957F4F8F4F9F4F27
S11304D00895E89409C097FB3EF490958095709533
S11304E061957F4F8F4F9F4F9923A9F0F92F96E97C
S11304F0BB279395F695879577956795B795F111F1
S1130500F8CFFAF4BB0F11F460FF1BC06F5F7F4F8D
S11305108F4F9F4F16C0882311F096E911C077239F
S113052021F09EE8872F762F05C0662371F096E8A8
S1130530862F70E060E02AF09A95660F771F881F77
S1130540DAF7880F9695879597F9089597F99F6735
S113055080E870E060E008959FEF80EC0895002447
S11305600A941616170618060906089500240A9414
S113057012161306140605060895092E0394000C9A
S113058011F4882352F0BB0F40F4BF2B11F460FF29
S113059004C06F5F7F4F8F4F9F4F089557FD905852
S11305A0440F551F59F05F3F71F04795880F97FB33
S11305B0991F61F09F3F79F08795089512161306ED
S11305C01406551FF2CF4695F1DF08C0161617061C
S11305D01806991FF1CF8695710561050894089551
S11305E0E894BB2766277727CB0197F908950E94E3
S11305F00A030C94BD020E94AF0238F00E94B602B6
S113060020F0952311F00C94A6020C94AC02112452
S11306100C94F1020E94CE0270F3959FC1F3950FE2
S113062050E0551F629FF001729FBB27F00DB11D72
S1130630639FAA27F00DB11DAA1F649F6627B00D02
S1130640A11D661F829F2227B00DA11D621F739FEB
S1130650B00DA11D621F839FA00D611D221F749FF9
S11306603327A00D611D231F849F600D211D822F40
S1130670762F6A2F11249F5750409AF0F1F0882367
S11306804AF0EE0FFF1FBB1F661F771F881F915094
S11306905040A9F79E3F510580F00C94A6020C949B
S11306A0F1025F3FE4F3983ED4F38695779567951E
S11306B0B795F795E7959F5FC1F7FE2B880F911DBE
S11306C09695879597F90895B7FF0C946C030E944B
S11306D06C03821B930B08950E947703A59F900DD2
S11306E0B49F900DA49F800D911D11240895A29F85
S11306F0B001B39FC001A39F700D811D1124911DF2
S1130700B29F700D811D1124911D0895F894FFCF9F
S9030000FC
